:1000000019C1000050C100004EC100004CC10000E9
:100010004AC1000048C1000046C1000044C10000C0
:1000200042C1000040C100000C94401A0C940C1B0B
:100030000C94A91538C1000036C1000034C100007D
:1000400032C1000030C100002EC100002CC10000F0
:100050002AC100000C94201626C1000024C1000013
:1000600022C1000020C100001EC100001CC1000010
:100070001AC1000018C1000016C1000014C1000020
:1000800012C1000010C100000EC100000CC1000030
:100090000AC1000008C1000006C1000004C1000040
:1000A00002C1000000C10000FEC000001E001F00D1
:1000B00020000000000000000E03610062006900E3
:1000C00070006100640000001E03410062006900CE
:1000D0007300680065006B0020006B0075006E0007
:1000E00077006100720000000403090409023B006C
:1000F000020100A0FA090400000103010100092126
:1001000011010001224400070581030800010904D0
:100110000100010300000009211101000122B600C5
:10012000070582032000011201000200000008ED13
:10013000FE000000010102000105010902A1018584
:10014000020901A1000509190129081500250195D9
:1001500008750181020501093009311581257F9556
:10016000027508810609381581257F95017508817A
:1001700006050C0A38021581257F95017508810650
:10018000C0C005010980A101850319012AB7001526
:100190000126B700950175108100C0050C0901A169
:1001A00001850419012AA002150126A002950175F6
:1001B000108100C005010906A1018506050719E0A7
:1001C00029E7150025019508750181020507190029
:1001D00029EF1500250195F0750181020508190127
:1001E0002905950575019102950175039101C005D9
:1001F000010906A101050719E029E7150025019568
:10020000087501810295017508810105071900290A
:10021000FF150026FF0095067508810005081901E5
:1002200029051500250195057501910295017503B4
:100230009101C00011241FBECFEFDAE0DEBFCDBFB9
:1002400004B603FE19C080917B0290917C02A091BC
:100250007D02B0917E028730904BA740B04B61F495
:1002600010927B0210927C0210927D0210927E020C
:10027000E0E0F8E3099500C011E0A0E0B1E0E0E4BF
:10028000FBE302C005900D92AC38B107D9F722E02C
:10029000ACE8B1E001C01D92AB37B207E1F70E94B4
:1002A000290F0C944C1DACCE811115C0623098F40E
:1002B000433088F470E0FB01EE0FFF1FE60FF71FDD
:1002C000E40FF11DEE0FFF1FE455FF4F859195914F
:1002D000282F822F089521E090E0FBCFE5CF0895ED
:1002E00081E0089581E00895FBCF089581E00895AD
:1002F00081E00895FDCF089508950895FDCF0895F4
:1003000008950895A6E0B0E0E8E8F1E00C94C81C78
:1003100049835A839E833091930189819A81311157
:1003200017C03E81311589F0211579F0FDD4182FC1
:10033000682F89819A81D2D469817A81812F0E9424
:10034000840C2696E3E00C94E41CDBD4182FF4CF45
:10035000EBD469817A81F3CFFC01262F4081518152
:100360006281738184819581CDCFCF93DF93EC013E
:1003700061E0F2DFBE01B6DF811529F061E0CE0158
:10038000EBDFBE01B1DFDF91CF9108950F931F9393
:10039000CF93DF93EC0160E0DFDF8C01BE01ADDFC6
:1003A000BE01C801ABDFDF91CF911F910F9108957E
:1003B0000F931F93CF93DF93EC0161E0CDDF8C01AE
:1003C000BE0194DF811106C080E0DF91CF911F91C3
:1003D0000F910895BE01C8018DDF8115A9F3BE01FB
:1003E000C8010E940413811579F3BE01C8010E945F
:1003F0007E0F811549F3BE01C8010E94570F811578
:1004000019F3BE01C8010E94870D8115E9F2BE01F2
:10041000C8010E94990D8115B9F2BE01C8010E9460
:10042000B30DD3CF21E030E002C0220F331F8A95F5
:10043000E2F7C9018EC3CF93C82F81E090E00C2E64
:1004400002C0880F991F0A94E2F70E94B30A8C2F0A
:10045000E9DFCF91089581E0089581E00895FBCF11
:100460000895CF93C82F24D38C2FF7DF8C2FF7DF7D
:10047000CF91089581E0F5DF0C94441680E0F1DF20
:100480000C9468163DDF0E945A1517C018D039DF4A
:100490000C945E1581E008950895CF93DF93D82FD3
:1004A000F9DFC82F811511F08D2FF6DF8C2FDF912A
:1004B000CF9108950895F1CF089580E0FCCF0E9478
:1004C0005213F9CFCF930E945213C82F80918E01FF
:1004D0008C1771F0C0938E010E94141660938F01E7
:1004E0007093900180939101909392018C2FE3DFA0
:1004F000CF910895ADE0B0E0E0E8F2E00C94C91CC3
:10050000488759876A877B878C879D8791111AD77F
:100510001F8286E0FE0138969E012F5F3F4FD90172
:1005200001900D928A95E1F78D8181110CC029818E
:100530003A814B815C816D817E818F814ED62D9673
:10054000E2E00C94E51CCE0101960FDF8111EFCFA4
:10055000F6CFFC012481213019F48081918117C4E8
:100560000895611521F00E94D7100C948C110E94FF
:100570001711FBCFCF93C82F811581F08450813A9A
:1005800078F48C2F0E940614811521F08C2F0E9484
:10059000A31463D78C2F0E948C145FD7CF9108953A
:1005A0008C2F805E883048F481E0C1FD84E0C0FD7E
:1005B000880FC2FD8295A7D6F0CF8C2F855A833045
:1005C00030F48C2F8452990B0E949213E7CFEC2FBA
:1005D000E85AEB3150F4F0E0EE0FFF1FE65EFE4FFD
:1005E000808191810E94B913D9CF8C2F8D5C83318A
:1005F000A8F661E08C2FB5DFD1CF811559F1982F86
:100600009450913A18F40E94A31427C7982F905E33
:10061000983050F4982F81E091FD84E090FD880F90
:1006200092FD829576D6F1CF982F955A933020F48B
:1006300080E090E00C949213982F985A9B3120F40C
:1006400080E090E00C94B913982F9D5C933110F4E6
:1006500060E087CF08951F93CF93DF93182FEB01AE
:1006600089DF209731F4812FC8DFDF91CF911F916F
:1006700008958FE99FE00197F1F700C000002197EE
:10068000F0CF60E570E0893311F060E070E0E3CF17
:10069000811511F038D6E1C60895811511F039D6CB
:1006A000DCC60895A0E0B0E0E8E5F3E00C94C31CDC
:1006B0006C01D62FC72FFC011581068102950F70A2
:1006C00017D6E82E8115E9F0E12E1115D1F08C2F07
:1006D000807F803461F08D2F805E8830E0F08C2F39
:1006E000807E803221F4D230B0F00115A1F08091EB
:1006F000650282FF10C082E0D4D6FAD591E0892746
:10070000E82EEC2FE295EF70C03C78F5F0E0E25B6C
:10071000F24E0C94B31CE12CF4CF0C2F0F70C031AF
:1007200010F00295007F111581F0011549F08D2F11
:10073000805E883010F0D11105C0802FE4D58DD6B1
:100740008D2F40C0802FF0D5FACF8D2F56DF0115A9
:1007500061F08D2F805E883010F0D11103C0802FA2
:10076000D8D502C0802FE6D578D6E11409F4B3C0FD
:10077000BBD580FDB0C0F6011582B0D51AD2C60136
:1007800068D1ACD524D2A7C08C2F8F70F82EC07F33
:10079000C03219F0F29480EFF822D13038F079F1BC
:1007A000111509F438C00115C9F0CACF809165024E
:1007B00082FD10C0111541F0F11419F08F2DA3D551
:1007C0004CD680E0D7DED1CF80E017DFF11469F29C
:1007D0008F2DC6CF111551F0013018F48F2D58DF31
:1007E000C4CF09F0C2CF8F2DC1D5BFCF0111BDCF6E
:1007F0008F2D53DF8F2DC5D58F2DAAD5B6CF1115CF
:1008000021F0063008F0B1CFE9CF053008F0ADCFC8
:100810008F2D43DFAACF0115D9F3D93349F48FEFD8
:1008200097EE23E0815090402040E1F700C00000A7
:100830008D2FE3DE9ACF8C2F86958695837081303D
:1008400060F009F092CF8D2F9C2F9370111102C090
:1008500080E090E00E94B91388CF8D2F9C2F937079
:10086000111102C080E090E00E9492137ECF612FB0
:100870008D2F77DE7ACF8C2F8370C1F5111128C0B0
:100880004D2F429546954770440F440F2D2F2F70E2
:1008900030E0042E02C0220F331F0A94E2F780E0FA
:1008A00090E0D4FF09C08FE090E002C0880F991F4C
:1008B0004A95E2F780959095C695C695C370822BB0
:1008C000932BC23079F0C33079F0C13049F04AD16E
:1008D0000E945213F0DDCDB7DEB7E8E00C94DF1CC8
:1008E0003AD1F6CF46D1F4CF34D1F2CF111559F128
:1008F000C0FFEECF4D2F429546954770440F440FF1
:100900002D2F2F7030E0042E02C0220F331F0A94C7
:10091000E2F780E090E0D4FF09C08FE090E002C0F1
:10092000880F991F4A95E2F780959095C695C695D0
:10093000C370822B932BC23061F0C33061F0C130A1
:1009400031F06AD1C5CF823008F4C2CFD3CF5DD1A8
:10095000BFCF69D1BDCF1AD1BBCFCF70111529F050
:100960008C2F27D18D2F94DEB3CF8D2F96DE8C2F39
:100970002ED1AECFD23F31F168F4D03FC1F0D13F9C
:1009800089F0111509F43EC0011509F438C08D2F06
:10099000F1DD9ECFD33FE1F0D43F99F7809165021E
:1009A00082FD1EC08C2F8F71111511F30FC0111510
:1009B00039F0053008F08CCF8C2F8F7118D188CF8B
:1009C0000630F8CF8C2F8F711111D2CFF2D080CF9B
:1009D000111521F08C2F8F71E3D07ACFDED078CF34
:1009E000111529F063E08C2F8F7144D571CF81E010
:1009F00058D5023008F46CCF82E053D569CF8C2FE4
:100A00008F71E4CF011571F0D93349F48FEF97EE70
:100A100023E0815090402040E1F700C000008D2F7E
:100A2000ECDD56CF8C2F8F71A3CF0F931F93CF93F5
:100A3000DF93EC01688179818D81B2D18C01FAD08C
:100A400087D0B801CE012EDEDF91CF911F910F919B
:100A50000895CF93DF93EC018C81811581F0CE0155
:100A6000A7DC81110FC044D4811549F08D81811517
:100A700031F08091650282FF02C082E012D5DF91E1
:100A8000CF910895CE01D1DFCE0180DCF8CF80E098
:100A900090E00E94921380E090E00E94B91352D43B
:100AA000DCD40E94A5110C948C110E94BA14EFCFD3
:100AB00038D4FBCF282F92959F70963099F060F430
:100AC000925F9F70923030F4203FB1F038F481E0B3
:100AD000283E38F080E008959A5FF3CF81E0243F0C
:100AE000C9F7089591E0813F09F090E081E0283E48
:100AF00008F080E0892B089581E00895FC012481AD
:100B0000211521F08081918142D1D4CF80E00895D8
:100B1000A6E0B0E0EEE8F5E00C94C91C2696E2E011
:100B20000C94E51CA7E0B0E0E8E9F5E00C94C91CE2
:100B30002796E2E00C94E51C0895FECF0895FDCFC2
:100B40000895FADFFCDF80939A0190939B0108954A
:100B50000895F7CF089520919A0130919B01822B3F
:100B6000932BEFCF20919A0130919B018223932305
:100B7000E8CF20919A0130919B0182279327E1CF02
:100B8000DBCF0895FDCF0895D7CF0895FDDFFADFBD
:100B90008093980190939901089580E090E0F6CFBA
:100BA00021E030E002C0220F331F8A95E2F7C9012D
:100BB000EDCF21E030E002C0220F331F8A95E2F72B
:100BC0008091980190919901822B932BDFCF21E0A6
:100BD00030E002C0220F331F8A95E2F7209530954E
:100BE000809198019091990182239323CFCF21E0A6
:100BF00030E002C0220F331F8A95E2F780919801FE
:100C00009091990182279327C1CF2091980130912B
:100C10009901822B932BBACF2091980130919901A1
:100C200082239323B3CF2091980130919901822799
:100C30009327ACCF0895CF93C1E061FDC4E060FD80
:100C4000CC0F62FDC29593E0769567959A95E1F792
:100C5000660F771F660F771F460F571FFA0140E098
:100C600050E090E06191DF019C01042E02C03695B6
:100C700027950A94E2F72695220B26272C23262770
:100C80002E934F5F5F4F4430510561F7CF91089528
:100C9000A82FA77023E0969587952A95E1F7880FEE
:100CA000991F880F991F680F791FFB0140E050E0E2
:100CB00080E0219130E00A2E02C0369527950A94F3
:100CC000E2F72170042E01C0220F0A94EAF7822B6A
:100CD0004F5F5F4F4430510561F70895E62F923022
:100CE00078F4833068F4292F30E0B901660F771F5C
:100CF000620F731F680F711D44E951E08E2F9BCF67
:100D00000895923078F4833068F4292F30E0A901F7
:100D1000440F551F240F351F64E971E0820F932F94
:100D2000911DB6CF80E00895CF92DF92FF920F938E
:100D30001F93CF93DF936C0100919801109199015B
:100D400080919A0190919B01082B192BCFE0D0E064
:100D500081E090E00C2E02C0880F991F0A94E2F700
:100D600080239123892B61F4219790F7F12C8F2D0B
:100D7000DF91CF911F910F91FF90DF90CF90089559
:100D8000FC2EB6018C2FCBD5019771F3F0CFCF930A
:100D9000DF93EC01C9DFBE01C2D5DF91CF91089589
:100DA0001F93CF93DF93EB0190919301911531F055
:100DB000CB01EDDFDF91CF911F910895811551F0A7
:100DC000CB01B2DF182F682FCE0188DFBE01812F43
:100DD000A6D5F0CFCB0195DF182FF8CF0F931F9337
:100DE00000919C0180919D01801303C01F910F9180
:100DF000089587E0089FF0011124E256FE4F2081FC
:100E00003181428153816481758186818BDE0F5FE0
:100E10001F4F0770E7CF2091D6013091D701409145
:100E2000D8015091D9016091DA017091DB01809174
:100E3000DC0178CE8091DC01803170F48091DB019F
:100E4000811551F0E0919C0120919D013091D701D5
:100E50004091D6012E1301C00895BF0187E0E89F9D
:100E6000F0011124DF01A256BE4F14968C91149705
:100E7000811549F111968C911197831324C08C919F
:100E8000841321C015968C91159781111CC0129660
:100E90008D919D91A091D801B091D9018A1B9B0B96
:100EA000883C910580F48091DC018F708061809393
:100EB000DC01EC55FE4F80818F708061808386ED70
:100EC00091E0C7DD8BCF6F5F7F4FFB01E770C2CF33
:100ED000E0919C0190919D01E91302C080E008958A
:100EE0009F0157E0E59FF0011124E256FE4F51812A
:100EF000561306C05081581303C05581541305C0C2
:100F00002F5F3F4FF901E770E7CF81E008958F929F
:100F10009F92AF92BF92DF92EF92FF920F931F9337
:100F2000CF93DF93CDB7DEB72D970FB6F894DEBF22
:100F30000FBECDBF8C0186E0F801DE01189601904E
:100F40000D928A95E1F7F801F580848196ED892E5E
:100F500091E0992E9091DA01911117C0811509F451
:100F6000EFC0F11409F42EC1C801C8DD811509F4E0
:100F700029C187E0F801D40101900D928A95E1F72B
:100F8000C401E7DA57DF47DFDBC0E080A280B3802F
:100F9000D090DB012091D8013091D901A501421BED
:100FA000530BD11409F4CFC0483C510508F09EC042
:100FB000811509F4C5C09091D70191808091DC0121
:100FC000803108F065C0991226C09091D6019E111B
:100FD00022C0F11057C08F7080618093DC011BDF4D
:100FE00086ED91E036DD8091DC01F8018683F12CFD
:100FF0008F2D2D960FB6F894DEBF0FBECDBFDF91BB
:10100000CF911F910F91FF90EF90DF90BF90AF9025
:101010009F908F900895F11035C040E0692D8E2D7E
:1010200057DF40E0692D8E2D53DFF82E8111DFCF81
:1010300088859985ACDE292F22952F70903450F445
:101040009F70223078F0911591F0F80196819031DF
:1010500070F4CECF2A5F2F70223070F0C801F9DC17
:10106000FD2CC6CF911519F0811509F4C1CF805E12
:10107000883008F4BDCFF2CF803F08F4B9CF815F4C
:101080008330F7CF8091DC0181608093DC01AFCFAA
:10109000991207C09091D6019E1103C0F11409F472
:1010A00073C0C8012BDD811509F48CC0F11409F45B
:1010B00089C08091DC01803280F02091D60130918E
:1010C000D70129833A83AB82BC829091DA019D8358
:1010D0001E828F83CE010196BCDC87E0F801A6ED6D
:1010E000B1E001900D928A95E1F74CCF9091DC012F
:1010F000903188F4488559856A857B858C859D85E6
:1011000007DD86ED91E0A5DCF40187E011928A9578
:10111000E9F781DE6CCF811599F02091D7018181AB
:101120002813BFCF8091D6018E11BBCFF110B9CF5C
:101130009683C8018EDCF40187E011928A95E9F765
:10114000FF24F39455CF483C510508F03EC081156B
:10115000B9F3F114B9F19091D7018181981329C0A5
:101160008091D6018E1125C08091DC0180FD18C0D0
:101170008031B0F08683807F803F39F08681982F60
:10118000907F905F8F70892B8683C80162DC87E037
:10119000F801A6EDB1E001900D928A95E1F7F3CE4A
:1011A00087E0F801A6EDB1E001900D928A95E1F794
:1011B000C7CFC801A3DC811190CF8091DC01816091
:1011C0008093DC01C80145DCBBCF488559856A8521
:1011D0007B858C859D859CDC97CFAEE0B0E0E3EF0E
:1011E000F8E00C94C81C288739874A875B876C878E
:1011F0007D878E87CE0108968ADE6C85811599F0F1
:10120000611539F0288539854A855B857D858E8510
:1012100089DC80919C0190919D0189133DC02E969F
:10122000E3E00C94E41C87E09E01285F3F4FF90146
:1012300027503109D90101900D928A95E1F7611586
:1012400041F3A0919D018A2F90E08395877090E0F3
:10125000AC0120919C012417150691F097E09A9F0C
:10126000D0011124A256BE4F9E012F5F3F4FF901BE
:1012700001900D929A95E1F740939D01AFDDC9CFA2
:1012800017DC10929D0110929C01E6EDF1E087E0E1
:1012900011928A95E9F7BDCF17E0189FC00111247C
:1012A00082569E4F34DE811509F4B9CFE0919C013E
:1012B0001E9FF0011124E256FE4F208131814281B0
:1012C00053816481758186812DDC80919C01909190
:1012D0009D010196877080939C019BCF80910502B0
:1012E0008695869586950895809105028770089564
:1012F00090910502977081E0911101C080E00895FE
:1013000080913102089590913102982B909331028F
:1013100008958095982F809131028923809331021E
:10132000089510923102089590913002982B909375
:10133000300208958095982F809130028923809300
:10134000300208951092300208950895FECF089556
:1013500090910602292F282329F0809589238093D4
:101360000602F4CF08950895FECF089590910702E4
:10137000292F2823281721F0982B90930702F4CFC8
:10138000089590910702292F282329F08095892319
:1013900080930702E9CF089580910702811521F01B
:1013A0001092070280E0E0CF0895CF93C091310200
:1013B00080913002C82B80910702811529F0C82B3B
:1013C0000E94E0138111E8DF8C2FCF910895CF9315
:1013D000DF93C0910201D0910301E7DF8883C091C0
:1013E0000201D091030148E050E06DEF71E0CE01C1
:1013F0000E94041D892B59F088E0FE01ADEFB1E099
:1014000001900D928A95E1F7CE010E946113DF9160
:10141000CF910895CF93DF93C0910001D091010146
:10142000C4DF8983C0910001D091010140E250E006
:101430006DED71E0CE010E94041D892B59F080E210
:10144000FE01ADEDB1E001900D928A95E1F7CE017C
:101450000E946E13DF91CF9108950E944B13811566
:1014600029F08091640287FF01C0D4CFB0CF0895E6
:10147000FECF08959091650292FF0EC0982F990FAC
:10148000990F990F962B9093050293DB809105029B
:10149000869586958695ECCF8CCB1092050280E0E0
:1014A000E7CF909105028095892380930502282F2C
:1014B000277059F4891749F09091650292FF05C091
:1014C00086958695869583DBE8CF08959091650291
:1014D00092FB222720F9281749F080FB92F990937C
:1014E000650284E692E043D082E0DBCF08958091EC
:1014F0006502002482FF0394802DE8CF81E0E6CFCF
:1015000080E0E4CF80E090E0BC0194C380E090E014
:10151000BC018AD3F7CFA3E0B0E0E1E9FAE00C9494
:10152000C91C3BD346D31B82CE01039659D381E01D
:1015300090E080939A0110929B015ED3198284E11E
:101540008A83CE01019669D3E1DF2396E2E00C9411
:10155000E51CE1CF089533C3089520C3089535C332
:10156000089544C3089548C308954BC3089555C3CF
:10157000089566C30895A6E0B0E0E1ECFAE00C94AB
:10158000C71C0E9408168C01809132029091330290
:101590008017910779F019821A820E940816BC01FF
:1015A00049815A8180E090E00E947A0200933202E1
:1015B000109333022696E4E00C94E31C0E94141668
:1015C000609338027093390280933A0290933B0201
:1015D0006093340270933502809336029093370201
:1015E000089508950895FDCF08950895FEDFFBCF77
:1015F0000895FECF08950895FEDFFBCF85E89DE0B6
:1016000038D4F0DFF3CF81E0089581E00895FBCF77
:101610000895089508950895FCDFFCDFFCCF9DDF59
:10162000811101C096DF8CE392E099DF84E692E0BD
:101630009CDF3BD496DF8DDA8091980190919901DF
:10164000A1CA0E94FF1590D3EADF0E9449130E94AD
:101650005A02D2CFA6E0B0E0E0E3FBE00C94C01C5D
:10166000D4DF81110AC087DF0E944A138FD60E94FF
:1016700062022696EBE00C94DC1C81D3109162028E
:1016800080E0E9D2181306C01091630281E0E3D232
:10169000181749F380913C0281FDE3D2B8DF982E00
:1016A00082E6A82E82E0B82E10E0812FD4D2F82E48
:1016B000F50181915F01F81661F18F25D82E00E0C8
:1016C000EE24E3948D2D8E21F1F0CC24C3948F2D44
:1016D0008E2109F4C12C911489F0602F812F0E9472
:1016E000751581110BC009831A830E940816BC016D
:1016F00049815A8181E09C2D0E947A024C2D602FF5
:10170000812F0E9489150F5FEE0C0330D9F6F50189
:10171000F292812F11E0813041F650DFA5CF0F9377
:101720001F93CF93DF93FDD0EC01D23508F050C06A
:10173000D03508F0C8C0C03ED10530F5CD3CD1054C
:1017400008F09DC0C83AD10578F4C53AD10508F033
:1017500093C0C130D105B1F1CE010497813A910512
:1017600088F1C0E0D0E02EC0CE01885A91094B9795
:10177000C0F7C85AD0E0CC0FDD1FC05BDE4F099028
:10178000D881C02DD4641EC0D034A8F4D03208F063
:10179000ADC0C83ED105B0F0CE0191509F3108F7E1
:1017A0008D2F62D1082F8C2F90E0BBD0D02FDF710E
:1017B000C82FD92B07C08C2F90E0B3D0DF70C82F73
:1017C000D92BD06ACE01DF91CF911F910F9108954F
:1017D000C03882E5D807B8F5C03682E5D80708F0EA
:1017E00056C0C03482E5D807C8F4C03282E5D807B5
:1017F00008F047C08C2F8695869520E2829FC00115
:101800001124C37021E030E002C0220F331FCA95BB
:10181000E2F7E901C82BD92BDD68D4CF8C2F869550
:101820008695877020E2829FC0011124C37021E059
:1018300030E002C0220F331FCA95E2F7E901C82B3E
:10184000D92BDC68BFCFC03C82E5D80750F48C2F81
:101850008F71C03AD24580F5982F84EF906AEC01E1
:10186000B1CFCE01805C9245809708F07ACFDC2F13
:10187000DF71C0EFD06AA6CFA497D064A3CFD065A4
:10188000A1CF8C2F8F71D82FC1EFD06A9BCF8C2F17
:1018900086958695877020E2829FC0011124C370CF
:1018A00021E030E002C0220F331FCA95E2F7E901C0
:1018B000C82BD92BDA6886CFD7D0982F80E09F71BC
:1018C000EC01D0627FCF8C2F8F71CED053E0CC0F44
:1018D000DD1F5A95E1F7DF70282F84FF04C090E1E7
:1018E000899F90011124C22FD0696CCF8D2F8F71E9
:1018F000BBD0082F8C2F90E014D0302F3F71282FB1
:10190000392B3062E9015ECF462F723028F4633004
:1019100018F4672F0C946E0180E090E00895F4DFD6
:10192000FECE803E9105D1F1C8F48133910509F4D2
:1019300081C048F48932910509F471C08A32910559
:1019400009F47FC0089589339105E1F0823891054B
:10195000C9F08533910509F45DC00895843E910571
:10196000D1F148F4823E910531F1833E910541F178
:1019700081EE90E00895863E9105C1F1873E910584
:10198000F1F1089520916402237009F064C0209160
:10199000650223FF14C089E290E00895209164025B
:1019A00020FD45C03091650230FF09C024FD24C0F0
:1019B00083EE90E008952091640222FDF7CF089510
:1019C0002091640222FD44C03091650230FD43C085
:1019D00024FFF5CF11C02091650221FFF0CF809147
:1019E000640284FD09C087EE90E0089520916402AE
:1019F00023FFE5CF24FFF7CF80E090E0089520910A
:101A0000640223FD2BC03091650231FFE1CF84EEEB
:101A100090E008952091640225FFD1CFBCCF2091A2
:101A2000640225FD1EC02091650223FFC8CF89E313
:101A300090E008952091640226FFC1CF8AE290E0F1
:101A400008952091640226FFBACF81E390E00895C3
:101A500082EE90E0089580EE90E0089586EE90E0AA
:101A6000089585E390E008959091640292FF10C07C
:101A700041E0282F2471243009F040E031E0282F84
:101A80002871283009F030E0431711F02CE082274C
:101A900093FF10C041E0282F2471243109F040E069
:101AA00031E0282F2871283109F030E0431711F078
:101AB0002CE082273091650230FF10C051E0282FC2
:101AC0002171213009F050E041E0282F28712830A1
:101AD00009F040E0541711F029E0822731FF10C0CF
:101AE00041E0282F2171213109F040E031E0282F19
:101AF0002871283109F030E0431711F029E08227DE
:101B000094FF02C083FD877E089580E00895CF93FF
:101B10009C01205E3245C1E02032310538F4FB01E2
:101B2000C581C11103C08F710E941B028C2FCF9100
:101B300008959C01FB018581811599F02B359CE767
:101B4000390769F02C359CE7390721F02A353C47E5
:101B500021F00895CCDC80E00895D0DCFCCFD0DC0F
:101B6000FACF81E008959C01FB018581811599F0F0
:101B700021309CE7390761F023309CE7390739F0C1
:101B800021153C4749F40E943A0280E00895E3DCC5
:101B90000E943E02FACF81E00895089580E090E02F
:101BA0000E94191D9C0181E0233E3E4F09F080E018
:101BB000089563EE7EEF80E090E00C94381D6FEFA7
:101BC0007FEF80E090E00C94381DCF93DF93EC0121
:101BD00082E090E00E94111D8883DF91CF910895EB
:101BE000FC01608182E090E00C941E1D83E090E097
:101BF0000E94111D90E00895682F83E090E00C94FE
:101C00001E1DCF93DF93EC0184E090E00E94191D2C
:101C100088839983DF91CF910895FC016081718160
:101C200084E090E00C94381DAB01BC018FE090E0A3
:101C30000C94301DAB01BC0183E190E00C94301D8D
:101C4000682F8EE090E00C941E1D0895FECF08953D
:101C50000895FECF0895E82FF0E0E859FD4F808108
:101C60000895089580EA8A95F1F7089500C00895CF
:101C7000F9CF0895F894E82FE295EF70F0E041A1D4
:101C80008F7021E001C0220F8A95EAF7922F90957C
:101C9000942391A392A1822F892B82A378940895F3
:101CA00081E9E8DF81E9E6DF82E6E4DF82E6E2DF80
:101CB00082E6E0CFA0E0B0E0E0E6FEE00C94C31CDA
:101CC0006C01E62EC62FD0E08E0107571E4FF8019B
:101CD00080818F3F09F441C0F894E82FE295EF70BE
:101CE000F0E091A18F7021E001C0220F8A95EAF700
:101CF000892F822B81A382A12095282322A3789467
:101D0000B5DFA6E8B1E031E0F12C2D912F3F79F05D
:101D1000E22FE295EF70E05EF0E0808190E02F70BE
:101D200002C0959587952A95E2F780FF1BC080E059
:101D3000F82A330F81E0A938B80739F7F801808114
:101D40008F3F09F097DF61E0F11001C060E08E2D58
:101D50008FDFF601EC0FFD1FF082CDB7DEB7E8E0B4
:101D60000C94DF1C832FE4CF9BDF1092680210924B
:101D70006902109266021092670231D067CFA2E02A
:101D8000B0E0E5ECFEE00C94C81C19821A8260E019
:101D9000CE0101968FDF61E0CE0101968BDF42E03C
:101DA00050E0CE010196BC0186E692E00E94041D3F
:101DB00041E0892B69F440E068E672E086E692E053
:101DC0000FD0182F46DF812F2296E3E00C94E41CFD
:101DD00089819A818093660290936702EDCF08957E
:101DE000EF92FF920F931F93CF93DF938C017B01B0
:101DF000C42F411571F081E080933F0209D7809391
:101E00003D0290933E0280E0CDB7DEB7E6E00C9451
:101E1000E11CD0913F02D115B1F380913D02909128
:101E20003E0287D6059778F342E050E0B801C7013B
:101E30000E94041D892B39F0F80180819181F701FE
:101E400080839183CD2F10923F028C2FDDCF02CC67
:101E5000089578D60E949917D1DB0E94B117F1DB63
:101E60000E94BA170E94BD17F2DF0E94D317D4DB7D
:101E7000F9CF80938C0190938D0108956CCB0895D8
:101E800080E0E9DE817008957ADF8FEF96E721E048
:101E9000815090402040E1F700C0000070DFF0DF8B
:101EA000811511F0EBDFF0C60895EECF0895CF93C2
:101EB000DF93EB0186319C47F9F422DA9D8191157D
:101EC00091F08A7A91E0811101C090E090934002F4
:101ED000811539F085E320D5C0DA80E0DF91CF911C
:101EE000089589E2F8CF80914002811519F085E3C9
:101EF0002AD5F2CF89E2FCCF81E0F0CFCF93DF93F8
:101F0000EC01FB018581811509F4C8C09E013057A1
:101F10002332310508F0A8C084E692E026DBFE01FA
:101F2000E150F047E232F10520F4E65AF24E0C940B
:101F3000B31C809164028160809364028FC08091A1
:101F4000650288608093650289C080916402826026
:101F5000F3CF809164028460EFCF80916402886047
:101F6000EBCF809165028160EDCF80916502826048
:101F7000E9CF809164028061DFCF8091640280624A
:101F8000DBCF809164028064D7CF0E945805809196
:101F900064028068D1CF809164028C60CDCF809143
:101FA00065028360CFCF809164028E7FC5CF809120
:101FB0006502877FC7CF809164028D7FBDCF8091FE
:101FC00064028B7FB9CF80916402877FB5CF809107
:101FD00065028E7FB7CF809165028D7FB3CF8091F0
:101FE00064028F7EA9CF809164028F7DA5CF8091FE
:101FF00064028F7BA1CF0E945805809164028F7785
:102000009BCF80916402837F97CF809165028C7F04
:1020100099CF90916402892F8B7F92FF8460877F94
:1020200092FF886089CF80916502982F909590FBF0
:1020300080F990FB81F986CF90916402892F8F7B84
:1020400096FF806479CF0E94580590916402892F91
:1020500097FB87F9805870CF81E08BDA84E692E0B5
:1020600086DA0E94580580E0DF91CF91089580E0E4
:10207000F4CF90916402892F8F7E94FF80615CCFB2
:1020800090916402892F8E7F90FF816055CF90914F
:102090006502892F877F93FF886054CF81E0E4CF6A
:1020A000382F25EB3203C001112497FF04C080585C
:1020B0009109892F089580589F4FFBCF8091470247
:1020C00080FF0DC06091090170E0660F771F6038D6
:1020D000710588F56115710581F1862F089581FFDD
:1020E00007C06091090184E0689FB0011124EFCF1F
:1020F00082FF04C06091090188E0F6CF909146020A
:102100009115B9F06091080180910901961728F0A6
:1021100098E0899FB0011124DACF899FC001112472
:1021200023E0880F991F2A95E1F770E00E94A01C18
:10213000CECF68E0D2CF8FE7089581E008958091F7
:10214000470280FF0CC06091050170E075956795AE
:10215000759567956115710541F1862F089581FF89
:1021600006C06091050170E075956795F3CF6091A9
:10217000050182FD0BC0909145029115A1F060917F
:10218000040180910501961738F0682F70E06038DF
:10219000710500F38FE70895899FC001112470E055
:1021A0000E94A01CF4CF61E0D8CF81E00895E82F11
:1021B000ED5CE33198F5F0E0E458F24E0C94B31C7A
:1021C0007DDF819580934B02089578DFFBCF76DF2A
:1021D000819580934A02089571DFFBCFB0DF809331
:1021E0004C020895ACDF8195FACFA9DF81958093E9
:1021F0004D020895A4DFFBCF815D990B21E001C062
:10220000220F8A95EAF780914902822B8093490236
:1022100008958091470281608093470208958091DC
:1022200047028260F9CF809147028460F5CF4091E8
:102230004A028D3C59F480914B0287FF0DC01092E9
:102240004B02411559F41092460208C08E3C81F4AD
:1022500080914B0218169CF3411581F080914C023D
:1022600090914D02892B09F056C0109245020895B5
:102270008F3C41F447FFF0CF10924A0280914B020D
:102280008115E0CF803D19F41416B4F3E5CF909199
:102290004C02893D29F41916FCF610924C02DCCF51
:1022A0008A3D19F497FFD8CFF8CF90914D028B3D1E
:1022B00029F497FFD1CF10924D02CECF8C3D19F467
:1022C0001916CCF3C9CF982F915D983078F4815DC1
:1022D000990B21E001C0220F8A95EAF7822F8095A1
:1022E00090914902892380934902B6CF8D3D31F404
:1022F000809147028E7F80934702AECF8E3D21F4BE
:10230000809147028D7FF7CF8F3D09F0A5CF809157
:1023100047028B7FF0CF08957BD49C0190914A02B5
:1023200080914B02982B21F020934302309344027A
:1023300090914C0280914D02982B21F02093410204
:102340003093420288E492E0DBC1E8E4F2E086E008
:1023500011928A95E9F71092460210924502109266
:1023600047020895FC01828181110EC08381811191
:102370000BC08481811108C091E08581811101C069
:1023800090E0892F8170089581E0FCCFA6E0B0E055
:10239000ECECF1E10C94C61C86E0E8E4F2E09E016E
:1023A0002F5F3F4FD90101900D928A95E1F710926E
:1023B0004A0210924B0210924C0210924D028B81F5
:1023C0009C81892B022FF32E811581F0809143028D
:1023D00090914402AED3AC01909146029115A1F1C7
:1023E00080910A018417150608F43BC08D819E81F7
:1023F000892B89F080914102909142029AD3AC01DD
:1024000090914502911509F45AC0809106018417F4
:10241000150608F462C0602F7F2D88E492E0C2D2D6
:10242000811104C088E492E09DDF811175DF86E0B0
:10243000E02FFF2DA8E4B2E001900D928A95E1F71C
:102440002696E5E00C94E21C20910B018AE0289F7F
:10245000900111242417350748F69F5F9093460298
:1024600002C09F3FD1F71B81111551F027DE91E08B
:1024700011160CF09FEF899F802D112480934A0242
:102480001C81111551F01ADE91E011160CF09FEF2E
:10249000899F802D112480934B0280914A028115DF
:1024A00009F4A4CF10914B02111509F49FCFF8DD68
:1024B00080934A02812FF4DD80934B0297CF2091C5
:1024C00007018AE0289F900111242417350708F09E
:1024D000A2CF9F5F9093450202C09F3FD1F71D811D
:1024E000111551F02CDE91E011160CF09FEF899F31
:1024F000802D112480934C028E81182F811551F06C
:102500001EDE91E011160CF09FEF899F802D1124A3
:1025100080934D0280914C02811509F47CCF9091FB
:102520004D02192F911509F476CFBADD80934C0234
:10253000812FB6DD80934D026ECF0F931F93CF9303
:10254000DF93C42FD22FFC0185818115C9F0409300
:1025500050025ED380934E0290934F028C2F805E88
:10256000883048F481E0C1FD84E0C0FD880FC2FDE1
:1025700082950E944803DF91CF911F910F9108959A
:1025800010915002141333C080914E0290914F026B
:10259000D0D2883C910558F5CD2FC05E1D17C1F0F3
:1025A000812F805E883048F481E011FD84E010FDC9
:1025B000880F12FD82950E944D03C83048F481E0D7
:1025C000D1FD84E0D0FD880FD2FD82950E944803A2
:1025D000802F0E94410381E0D1FD84E0D0FD880F6F
:1025E000D2FD8295C83038F60E944D03C4CF8C2F9F
:1025F000805E883008F0BFCF81E0C1FD84E0C0FD7F
:10260000880FC2FD8295F0CF0F93FC01CB01E851FA
:10261000FC47E730F10588F5E157F24E0C94B31C06
:1026200006E221EE41EE6AE17CE787DF80E00F9170
:10263000089507E225EE45EE6BE17CE7F6CF06E272
:1026400021EE40EE68E17CE7F0CF07E225EE44EEB4
:1026500069E17CE7EACF06E221EE42EE6CE17CE73D
:10266000E4CF07E225EE46EE6DE17CE7DECF08E23F
:1026700021E045EE6EE17CE7D8CFFB018581811139
:102680001092500281E0D3CF80935502909356026E
:10269000089508950895EDD1982F81E0913009F0C3
:1026A00080E00895E0915502F0915602309739F09C
:1026B0000190F081E02D309711F00995089580E0A8
:1026C0000895E0915502F0915602309731F0028062
:1026D000F381E02D309709F009950895E0915502B6
:1026E000F0915602309759F024813581232B39F02F
:1026F00026E0DC012C930480F581E02D09950895F6
:10270000E0915502F0915602309759F026813781B9
:10271000232B39F022E0DC012C930680F781E02D99
:1027200009950895A3E0B0E0E8E9F3E10C94C91C31
:10273000209153023091540228173907B1F0809349
:10274000530290935402E0915502F0915602309753
:1027500061F00084F185E02D309739F023E0298382
:102760008A839B83CE01019609952396E2E00C941F
:10277000E51CA3E0B0E0EFEBF3E10C94C91C209161
:1027800051023091520228173907B1F0809351025B
:1027900090935202E0915502F0915602309761F009
:1027A0000084F185E02D309739F024E029838A8375
:1027B0009B83CE01019609952396E2E00C94E51CDB
:1027C000CF93DF93C0910201D091030164DF8115A3
:1027D00021F08091640287FD11C09E012E5F3F4F62
:1027E00096E080E09150F90140812F5F3F4F411109
:1027F0008F5F9111F7CFDF91CF9108952091000164
:10280000309101012E5F3F4F9EE1EBCFCF93C82F58
:10281000811102C080E02EC03EDF811521F0809141
:10282000640287FD0FC08091020190910301FC01B9
:102830003296089620812C17F9F03196E817F9079F
:10284000C9F7E8CF8C2F869586958695C03F10F7FF
:10285000E0910001F0910101E80FF11D228130E0CB
:10286000C77081E001C0880FCA95EAF7282381E08C
:10287000232B81F2CF91089581E0FCCF9C01FC01D4
:10288000329680E09FEF4081461759F031969F3F86
:1028900019F4411101C0982F8F5F8630A1F79F3F37
:1028A00009F40895290F311D97FD3A95F9016283C6
:1028B0000895FC01329608962191261302C0DF018B
:1028C0001E92E817F907C1F70895262F2695269539
:1028D0002695603F60F4820F911DFC01677021E036
:1028E00001C0220F6A95EAF78281822B82830895C4
:1028F000262F269526952695603F68F4820F911D18
:10290000FC019DEF61FD97EF60FF959562FD92954B
:102910008281892382830895CF93C82FBCDE6C2FD8
:10292000811559F08091640287FF07C080910001F2
:1029300090910101CADFCF91089580910201909199
:1029400003019CDFF8CFCF93C82FA5DE6C2F811534
:1029500059F08091640287FF07C080910001909137
:102960000101C6DFCF91089580910201909103018A
:10297000A0DFF8CF90DE811571F08091640287FFAF
:102980000AC0E0910001F091010132968EE11192AE
:102990008A95E9F70895E0910201F09103013296DA
:1029A00086E0F5CFDC01FB0111969C9111978181A6
:1029B000981322C012968C911297811519F092816A
:1029C00089131AC013968C911397811519F093816E
:1029D000891312C015968C911597811519F0958160
:1029E00089130AC014969C91911521F081E02481ED
:1029F000291303C080E001C081E08170089508952B
:102A0000FECF08958F5F80930F0160910C0170914C
:102A10000D0180910E0190910F01F2CF83E0809320
:102A20000F0160910C0170910D0180910E01909148
:102A30000F01E6CFE7CF089581E080930F01609109
:102A40000C0170910D0180910E0190910F01D8CF72
:102A5000F3CF089591E0811101C090E090930E01B1
:102A600060910C0170910D0180910E0190910F0108
:102A7000C7CF80910E01089580930D0160910C01E4
:102A800070910D0180910E0190910F01B9CF80914D
:102A90000D01089580930C0160910C0170910D015E
:102AA00080910E0190910F01ABCF80910C010895A0
:102AB00008950895FECF089508950895F9CF0895D3
:102AC000CF93FADF5CD9F9DF80E0C5D8C82F8093B7
:102AD000570281E0C0D8809358028C2B982F81E058
:102AE000911101C080E0CF910895E82FF0E0E95AFC
:102AF000FD4F808190E021E030E002C0220F331FC3
:102B00006A95E2F72823392381E0232B09F480E03A
:102B1000089541110DC0E82FF0E0E95AFD4F21E082
:102B200001C0220F6A95EAF720958081282320832F
:102B30000895CF93DF93EC016BD08C1B9D0BDF913D
:102B4000CF91089585B7806885BF85B7806885BFB8
:102B500008951F921FB61F9211248F939F93AF93D6
:102B6000BF9380915902811113C080916A029091A4
:102B70006B02A0916C02B0916D024196A11DB11D36
:102B800080936A0290936B02A0936C02B0936D02E3
:102B9000BF91AF919F918F911F901FBE1F9018956D
:102BA00080917202843031F10E94420210925902E7
:102BB00088E190E020E40FB6F894A8958093600037
:102BC0000FBE2093600083B7817F846083BF83B78B
:102BD000816083BF7894889583B78E7F83BF0FB65B
:102BE000F894A895809160008861809360001092AD
:102BF00060000FBE08950E9458050C94460282E0C2
:102C000084BD93E095BD9AEF97BD80936E000895C3
:102C10002FB7F89480916A0290916B02A0916C0298
:102C2000B0916D022FBF08952FB7F89460916A029A
:102C300070916B0280916C0290916D022FBF08958C
:102C400078941F921FB61F9211248F939F93AF9376
:102C5000BF9380916A0290916B02A0916C02B09137
:102C60006D020196A11DB11D80936A0290936B02C3
:102C7000A0936C02B0936D02BF91AF919F918F9121
:102C80001F901FBE1F90189581E08093E00080E2A6
:102C90008093D8001092C9008FE19EE40197F1F76C
:102CA00000C00000A7E0B0EBCD0180937B029093C1
:102CB0007C02A0937D02B0937E0288E19CE00FB677
:102CC000F894A895809360000FBE90936000FFCFAA
:102CD00088E19CE00FB6F894A895809360000FBE41
:102CE00090936000FFCF9B01BA01909172029430E3
:102CF000D9F48F708093E9009FEF8091E80085FD03
:102D000006C085ED8A95F1F700009150B1F78091EA
:102D1000E80085FF09C040E050E0C901B6D18091CC
:102D2000E8008E778093E800089543E050E0BC010E
:102D300082E0D9CF46E050E0BC0182E0D4CF40E24F
:102D400050E0BC0182E0CFCFCF93DF93EC0191DE66
:102D500048E050E0BE0181E0C6DF88E0FE01AAE560
:102D6000B2E001900D928A95E1F7DF91CF9108953D
:102D700080917102811107C016D366D38091E20061
:102D800084608093E200089510927102089554DEE9
:102D900081E060CE60916E0281E0611101C080E04F
:102DA0003DCE9091720281E0943009F080E0609114
:102DB0006E0240CE42E061EC81E071D242E261EC11
:102DC00082E06DD29091720281E0943009F080E04F
:102DD00060916E0217CE80917402893081F148F4BF
:102DE000823009F496C0833009F457C0813041F035
:102DF00008958A3009F480C08B3009F468C00895C2
:102E000080917302813A09F047C08091E800877F82
:102E10008093E8008091770290917802892B59F095
:102E200060E080E090E070E07DD18091E8008B77F9
:102E30008093E800089568E08AE592E0F4CF8091FD
:102E40007302813249F5809177029091780202975E
:102E500018F58091E800877F8093E8008091E80072
:102E600082FF16C02091F3008091F200922F02970A
:102E700031F48091F100813011F0863019F48091A5
:102E8000F100FADD8091E8008B778093E8003BC287
:102E9000809172028111E2CF089580917302813A8C
:102EA000D9F78091770290917802892BA9F78091C8
:102EB000E800877F8093E8008091E80080FFFCCFE6
:102EC000D8DD8093F1008091E8008E77DECF80918D
:102ED0007302813209F78091770290917802892BF1
:102EE000D9F68091E800877F8093E8000CD280912A
:102EF0007502B0DD0C94580580917302813261F641
:102F00008091E800877F8093E800FDD18091760270
:102F1000C1CD80917302813A09F0BECF8091E80063
:102F2000877F8093E8008091E80080FFFCCFBDDDC3
:102F3000C8CF84B7877F84BF0FB6F894A8958091D7
:102F40006000886180936000109260000FBE80E88E
:102F500090E00FB6F89480936100909361000FBEEB
:102F600077CD21D271D2E2EEF0E08081846080835F
:102F70007894CDC480E191E087CB80917202853056
:102F800029F480917202853011F035CE089508DE63
:102F900097DD8115B1F380917002811591F35FD0B7
:102FA0000E945805EECF08959A0140917902509100
:102FB0007A0200C0492F50E043305105C9F070F447
:102FC00041305105E9F14230510571F48BE390E055
:102FD0004CEE50E0F9014083518308954132510590
:102FE000E9F04232510519F180E090E040E0F2CF83
:102FF000482F50E0813061F04230510561F0E8EE39
:10300000F0E04115510581F7849190E0AF01E2CFE6
:10301000E8ECF0E0F9CFE8EBF0E0F6CF61307105D5
:10302000A0F011F789E090E047E151E0D3CF6130A3
:10303000710580F0C9F686EB90E049E351E0CACF14
:1030400082E190E047E251E0C5CF89E090E04EEFA9
:1030500050E0C0CF84E490E04FEE51E0BBCF80E180
:1030600089BD82E189BD09B400FEFDCF8091D80001
:103070008F7D8093D8008091E00082608093E00093
:103080008091E00081FDFCCF0895AF92BF92CF9276
:10309000DF92FF920F931F93CF93DF936C01EB01AD
:1030A0008A0150D1F82E811123C00115110539F084
:1030B000F80180819181C81BD90BC80ED91EA12CA3
:1030C000B12C2097A9F08091E80085FD21C0809166
:1030D000E8008E778093E80001151105A1F0F80152
:1030E000808191818A0D9B1D8083918385E0F82EDC
:1030F0008F2DDF91CF911F910F91FF90DF90CF9097
:10310000BF90AF9008951ED18115E9F2F82EF0CF4F
:10311000F60181916F018093F10021978FEFA81A3A
:10312000B80ACFCFFC012091790230917A0226179C
:10313000370720F06115710569F09B0190E02115BA
:10314000310571F491110CC08091E80082FF38C004
:1031500080E008959091E8009E779093E800EDCF8D
:10316000809172028115C1F18530C1F18091E80032
:1031700083FD30C08091E80082FDE6CF8091E800B9
:1031800080FFDDCF8091F3004091F200582F211590
:10319000310519F04830510558F091E0483051059B
:1031A00009F090E04091E8004E774093E800C7CFE7
:1031B00081918093F100215031094F5F5F4FE7CF3C
:1031C00080917202811541F0853041F08091E800D4
:1031D00083FFBACF81E0089582E0089583E00895E7
:1031E000FC012091790230917A022617370720F0EE
:1031F0006115710569F09B0190E02115310571F4AD
:1032000091110CC08091E80082FF39C080E00895E0
:103210008091E8008E778093E800EDCF8091720274
:103220008115C9F18530C9F18091E80083FD31C075
:103230008091E80082FDE6CF8091E80080FFDDCF3D
:103240008091F3004091F200582F2115310519F0BB
:103250004830510558F091E04830510509F090E0B0
:103260008091E8008E778093E800C7CF84918093A7
:10327000F1003196215031094F5F5F4FE6CF8091C9
:103280007202811541F0853041F08091E80083FFA2
:10329000B9CF81E0089582E0089583E00895982FE2
:1032A000973028F08F708093E90081E00895909323
:1032B000E900242F762F50E0981731F07091EC0040
:1032C0002091ED005091F00021FD02C09F5FE8CFFA
:1032D0003091EB003E7F3093EB003091ED003D7F6D
:1032E0003093ED003091EB0031603093EB00709340
:1032F000EC002093ED005093F0002091EE0027FDAC
:10330000E5CF80E008958091730287FF13C080911C
:10331000E80082FF06C08091E8008B778093E80088
:103320000895809172028111F2CF08958091720206
:103330008115D9F38091E80080FFF8CF8091E800F3
:103340008E77ECCF2091E4003091E50095E6A9015D
:103350002091EC00822F817020FF06C08091E80050
:1033600080FF06C080E008952091E80022FD1AC089
:1033700080917202811589F0853089F08091EB008F
:1033800085FD0FC02091E4003091E50042175307FE
:10339000F9F29150E1F684E0089582E0089583E027
:1033A000089581E008955FD066D0E0EEF0E080817E
:1033B00081608083E8ED80818F77808319BCA7EDE1
:1033C000B0E08C918E7F8C9380818F7E8083109271
:1033D00071020895CF93DF9346D04DD0C8EDD0E071
:1033E00088818F77888388818068888388818F7DB2
:1033F000888319BC1092720210926E0210927002B1
:1034000010926F02E0EEF0E080818B7F80838881F4
:103410008160888342E060E080E041DFE1EEF0E03F
:1034200080818E7F8083E2EE8081816080838081D5
:1034300088608083E0EE80818E7F808388818061D8
:103440008883DF91CF910895E8EDF0E080818F7E51
:103450008083E7ED80818160808384E082BF81E0AA
:1034600080937102B7CFE8EDF0E080818E7F80839A
:103470001092E20008951092DA001092E10008958F
:103480001F920F920FB60F9211242F933F934F93D9
:103490005F936F937F938F939F93AF93BF93EF93BC
:1034A000FF938091E10082FF0AC08091E20082FFD9
:1034B00006C08091E1008B7F8093E10027D280914C
:1034C000DA0080FF18C08091D80080FF14C080917E
:1034D000DA008E7F8093DA008091D90080FF8FC060
:1034E00080E189BD82E189BD09B400FEFDCF81E0A4
:1034F000809372023DDC8091E10080FF18C08091D2
:10350000E20080FF14C08091E2008E7F8093E20091
:103510008091E20080618093E2008091D800806217
:103520008093D80019BC85E08093720233DC8091CF
:10353000E10084FF28C08091E20084FF24C080E184
:1035400089BD82E189BD09B400FEFDCF8091D8001C
:103550008F7D8093D8008091E1008F7E8093E10081
:103560008091E2008F7E8093E2008091E200816092
:103570008093E20080916E02811509F445C084E0D9
:10358000809372020EDC8091E10083FF27C080915E
:10359000E20083FF23C08091E100877F8093E100F8
:1035A00082E08093720210926E028091E1008E7F21
:1035B0008093E1008091E2008E7F8093E200809111
:1035C000E20080618093E20042E060E080E067DE3C
:1035D0008091F00088608093F000D9DBFF91EF913B
:1035E000BF91AF919F918F917F916F915F914F911B
:1035F0003F912F910F900FBE0F901F90189519BCFF
:1036000010927202C1DB77CF8091E30087FF02C086
:1036100083E0B6CF81E0B4CF1F920F920FB60F9226
:1036200011241F932F933F934F935F936F937F9337
:103630008F939F93AF93BF93CF93DF93EF93FF93BA
:10364000E9EEF0E080811091EC008F7010FB112703
:1036500017F9182B1082C0EFD0E08881877F88830C
:1036600078941CD0E9EEF0E010828881886088832D
:103670001F701083FF91EF91DF91CF91BF91AF91B8
:103680009F918F917F916F915F914F913F912F917A
:103690001F910F900FBE0F901F901895AAE2B0E0F7
:1036A000E3E5FBE175C183E792E0FC01019620911F
:1036B000F100208322E08B379207B9F78CDB8091F1
:1036C000E80083FF37C080917302909174029A30B2
:1036D00088F5E92FF0E0EA56F24E45C1803889F0CE
:1036E000823841F5809177028F70873018F580938A
:1036F000E9008091EB0085FB882780F91092E900B2
:1037000006C080917002880F90916F02892B909172
:10371000E800977F9093E8008093F1001092F10009
:103720008091E8008E7722C0811115C080917502CA
:10373000813001F18091E80083FF0AC08091E800A8
:10374000877F8093E8008091EB0080628093EB009C
:10375000AA96E3E039C1823069F78091750281153C
:1037600079F01092E9008091E800877F8093E8006B
:10377000CADDE0CF933009F080E080937002F1CF92
:10378000809177028F70282F2150263098F68093F1
:10379000E9002091EB0020FFE4CF933031F48091D9
:1037A000EB0080628093EB00DCCF9091EB009061A6
:1037B0009093EB0021E001C0220F8A95EAF7209355
:1037C000EA001092EA008091EB008860EBCF811153
:1037D000B1CF809175028F77182F8091E3008078A8
:1037E000812B8093E3008091E800877F8093E8003D
:1037F0008ADD8091E80080FFFCCF8091E300806843
:103800008093E30083E0111101C082E08093720293
:1038100091CF8058823008F08DCF809175029091C1
:1038200076028C3D23E0920789F583E08A838AE261
:1038300089834FB7F894DE01139620E03EE051E211
:10384000E32FF0E050935700849120FF03C082954E
:103850008F703F5F8F708A30B8F0895C8D931D92B6
:103860002F5F243169F74FBF8091E800877F8093F5
:10387000E8006AE270E0CE01019654DC8091E80035
:103880008B778093E80056CF805DE8CF6091770218
:1038900070917802AE014F5F5F4F86DBBC01892BD0
:1038A00009F448CF9091E800977F9093E8008981D0
:1038B0009A8196DCE3CF803809F03CCF8091E80014
:1038C000877F8093E80080916E028093F10028CF7B
:1038D000811130CF90917502923008F02BCF8091FA
:1038E000E800877F8093E80090936E020CDD809162
:1038F0006E02811529F084E0809372025BDA1ACFA0
:103900008091E30087FDF7CF81E0F6CF0895CF9354
:1039100080917202811591F08091E900C091EC00D4
:103920008F70C0FBCC27C7F9C82B1092E90080919B
:10393000E80083FDB3DECF70C093E900CF91089516
:1039400097FB072E16F4009406D077FD08D048D0D8
:1039500007FC05D03EF4909581959F4F0895709592
:1039600061957F4F0895EE0FFF1F0590F491E02DB4
:1039700009942F923F924F925F926F927F928F9213
:103980009F92AF92BF92CF92DF92EF92FF920F93EE
:103990001F93CF93DF93CDB7DEB7CA1BDB0B0FB6F8
:1039A000F894DEBF0FBECDBF09942A8839884888B5
:1039B0005F846E847D848C849B84AA84B984C8844B
:1039C000DF80EE80FD800C811B81AA81B981CE0F42
:1039D000D11D0FB6F894DEBF0FBECDBFED01089527
:1039E000AA1BBB1B51E107C0AA1FBB1FA617B70725
:1039F00010F0A61BB70B881F991F5A95A9F7809541
:103A00009095BC01CD010895FB01DC0104C08D91AE
:103A10000190801921F441505040C8F7881B990B40
:103A20000895F999FECF92BD81BDF89A992780B586
:103A30000895A8E1B0E042E050E020C0262FF999B7
:103A4000FECF92BD81BDF89A019700B4021639F0FD
:103A50001FBA20BD0FB6F894FA9AF99A0FBE0895CE
:103A60000396272FECDFEADF252FE9DF242FE7CFAE
:103A70000196272FE4DFE2CFDC01CB01FC01F999AD
:103A8000FECF06C0F2BDE1BDF89A319600B40D92AA
:103A900041505040B8F70895F894FFCF8D038D033F
:103AA000C403C4031B043704B503B5033B04AD04CE
:103AB000BA04BA04D30F4010DB0FA50FA90FDF0F14
:103AC000AD0FE30FEF0FB90F3910BD0FF30FC10F9B
:103AD000F70F1C10C50FFB0F2310CB0F011009109F
:103AE000B10FE70FB50FEB0FCF0F051013102C1010
:103AF00037109F0FD70F4710E010E510E710EC10BC
:103B0000FC10FC10FC10FC10FC10FC10FC10FC1055
:103B1000EE10F210F510FA1009110F1113111F1306
:103B20002513101319132B13311337136E1B941B0A
:103B30009A1B941B9A1BE71B091C9A1B5B1C681C95
:103B400008022802280850011E0A14010000010082
:103B50004715A4169F169A169516E200E900EA008A
:103B6000B500B600B700CD008301CC008A019201F8
:103B700094012102230224022502260227022A029E
:103B8000B300B4006F0070009F01CB019F02A00240
:103B9000E200E900EA00B500B600B700CD008301FD
:103BA000CC008A0192019401210223022402250201
:103BB000260227022A02B300B4006F0070009F01A2
:0C3BC000CB019F02A002626262919100A2
:00000001FF
